:020000000000FE
:020001000001FC
:020002000003F9
:020003000005F6
:020004000007F3
:020005000009F0
:02000600000BED
:02000700000DEA
:02000800000FE7
:020009000011E4
:02000A000013E1
:02000B000015DE
:02000C000017DB
:02000D000019D8
:02000E00001BD5
:02000F00001DD2
:02001000001FCF
:020011000021CC
:020012000023C9
:020013000025C6
:020014000027C3
:020015000029C0
:02001600002BBD
:02001700002DBA
:02001800002FB7
:020019000031B4
:02001A000033B1
:02001B000035AE
:02001C000037AB
:02001D000039A8
:02001E00003BA5
:02001F00003DA2
:02002000003F9F
:0200210000419C
:02002200004399
:02002300004596
:02002400004793
:02002500004990
:02002600004B8D
:02002700004D8A
:02002800004F87
:02002900005184
:02002A00005381
:02002B0000557E
:02002C0000577B
:02002D00005978
:02002E00005B75
:02002F00005D72
:02003000005F6F
:0200310000616C
:02003200006369
:02003300006566
:02003400006763
:02003500006960
:02003600006B5D
:02003700006D5A
:02003800006F57
:02003900007154
:02003A00007351
:02003B0000754E
:02003C0000774B
:02003D00007948
:02003E00007B45
:02003F00007D42
:02004000007F3F
:0200410000813C
:02004200008339
:02004300008536
:02004400008733
:02004500008930
:02004600008B2D
:02004700008D2A
:02004800008F27
:02004900009124
:02004A00009321
:02004B0000951E
:02004C0000971B
:02004D00009918
:02004E00009B15
:02004F00009D12
:02005000009F0F
:0200510000A10C
:0200520000A309
:0200530000A506
:0200540000A703
:0200550000A900
:0200560000ABFD
:0200570000ADFA
:0200580000AFF7
:0200590000B1F4
:02005A0000B3F1
:02005B0000B5EE
:02005C0000B7EB
:02005D0000B9E8
:02005E0000BBE5
:02005F0000BDE2
:0200600000BFDF
:0200610000C1DC
:0200620000C3D9
:0200630000C5D6
:0200640000C7D3
:0200650000C9D0
:0200660000CBCD
:0200670000CDCA
:0200680000CFC7
:0200690000D1C4
:02006A0000D3C1
:02006B0000D5BE
:02006C0000D7BB
:02006D0000D9B8
:02006E0000DBB5
:02006F0000DDB2
:0200700000DFAF
:0200710000E1AC
:0200720000E3A9
:0200730000E5A6
:0200740000E7A3
:0200750000E9A0
:0200760000EB9D
:0200770000ED9A
:0200780000EF97
:0200790000F194
:02007A0000F391
:02007B0000F58E
:02007C0000F78B
:02007D0000F988
:02007E0000FB85
:02007F0000FD82
:0200800000FF7F
:0200810001017B
:02008200010378
:02008300010575
:02008400010772
:0200850001096F
:02008600010B6C
:02008700010D69
:02008800010F66
:02008900011163
:02008A00011360
:02008B0001155D
:02008C0001175A
:02008D00011957
:02008E00011B54
:02008F00011D51
:02009000011F4E
:0200910001214B
:02009200012348
:02009300012545
:02009400012742
:0200950001293F
:02009600012B3C
:02009700012D39
:02009800012F36
:02009900013133
:02009A00013330
:02009B0001352D
:02009C0001372A
:02009D00013927
:02009E00013B24
:02009F00013D21
:0200A000013F1E
:0200A10001411B
:0200A200014318
:0200A300014515
:0200A400014712
:0200A50001490F
:0200A600014B0C
:0200A700014D09
:0200A800014F06
:0200A900015103
:0200AA00015300
:0200AB000155FD
:0200AC000157FA
:0200AD000159F7
:0200AE00015BF4
:0200AF00015DF1
:0200B000015FEE
:0200B1000161EB
:0200B2000163E8
:0200B3000165E5
:0200B4000167E2
:0200B5000169DF
:0200B600016BDC
:0200B700016DD9
:0200B800016FD6
:0200B9000171D3
:0200BA000173D0
:0200BB000175CD
:0200BC000177CA
:0200BD000179C7
:0200BE00017BC4
:0200BF00017DC1
:0200C000017FBE
:0200C1000181BB
:0200C2000183B8
:0200C3000185B5
:0200C4000187B2
:0200C5000189AF
:0200C600018BAC
:0200C700018DA9
:0200C800018FA6
:0200C9000191A3
:0200CA000193A0
:0200CB0001959D
:0200CC0001979A
:0200CD00019997
:0200CE00019B94
:0200CF00019D91
:0200D000019F8E
:0200D10001A18B
:0200D20001A388
:0200D30001A585
:0200D40001A782
:0200D50001A97F
:0200D60001AB7C
:0200D70001AD79
:0200D80001AF76
:0200D90001B173
:0200DA0001B370
:0200DB0001B56D
:0200DC0001B76A
:0200DD0001B967
:0200DE0001BB64
:0200DF0001BD61
:0200E00001BF5E
:0200E10001C15B
:0200E20001C358
:0200E30001C555
:0200E40001C752
:0200E50001C94F
:0200E60001CB4C
:0200E70001CD49
:0200E80001CF46
:0200E90001D143
:0200EA0001D340
:0200EB0001D53D
:0200EC0001D73A
:0200ED0001D937
:0200EE0001DB34
:0200EF0001DD31
:0200F00001DF2E
:0200F10001E12B
:0200F20001E328
:0200F30001E525
:0200F40001E722
:0200F50001E91F
:0200F60001EB1C
:0200F70001ED19
:0200F80001EF16
:0200F90001F113
:0200FA0001F310
:0200FB0001F50D
:0200FC0001F70A
:0200FD0001F907
:0200FE0001FB04
:0200FF0001FD01
:0201000001FFFD
:020101000201F9
:020102000203F6
:020103000205F3
:020104000207F0
:020105000209ED
:02010600020BEA
:02010700020DE7
:02010800020FE4
:020109000211E1
:02010A000213DE
:02010B000215DB
:02010C000217D8
:02010D000219D5
:02010E00021BD2
:02010F00021DCF
:02011000021FCC
:020111000221C9
:020112000223C6
:020113000225C3
:020114000227C0
:020115000229BD
:02011600022BBA
:02011700022DB7
:02011800022FB4
:020119000231B1
:02011A000233AE
:02011B000235AB
:02011C000237A8
:02011D000239A5
:02011E00023BA2
:02011F00023D9F
:02012000023F9C
:02012100024199
:02012200024396
:02012300024593
:02012400024790
:0201250002498D
:02012600024A8B
:02012700024C88
:02012800024E85
:02012900025082
:02012A0002527F
:02012B0002547C
:02012C00025679
:02012D00025876
:02012E00025A73
:02012F00025C70
:02013000025E6D
:0201310002606A
:02013200026267
:02013300026464
:02013400026661
:0201350002685E
:02013600026A5B
:02013700026C58
:02013800026E55
:02013900027052
:02013A0002724F
:02013B0002744C
:02013C00027649
:02013D00027846
:02013E00027A43
:02013F00027C40
:02014000027E3D
:0201410002803A
:02014200028237
:02014300028434
:02014400028631
:0201450002882E
:02014600028A2B
:02014700028C28
:02014800028E25
:02014900029022
:02014A0002921F
:02014B0002941C
:02014C00029619
:02014D00029816
:02014E00029A13
:02014F00029C10
:02015000029E0D
:0201510002A00A
:0201520002A207
:0201530002A404
:0201540002A601
:0201550002A8FE
:0201560002AAFB
:0201570002ACF8
:0201580002AEF5
:0201590002B0F2
:02015A0002B2EF
:02015B0002B4EC
:02015C0002B6E9
:02015D0002B8E6
:02015E0002BAE3
:02015F0002BCE0
:0201600002BEDD
:0201610002C0DA
:0201620002C2D7
:0201630002C4D4
:0201640002C6D1
:0201650002C8CE
:0201660002CACB
:0201670002CCC8
:0201680002CEC5
:0201690002D0C2
:02016A0002D2BF
:02016B0002D4BC
:02016C0002D6B9
:02016D0002D8B6
:02016E0002DAB3
:02016F0002DCB0
:0201700002DEAD
:0201710002E0AA
:0201720002E1A8
:0201730002E3A5
:0201740002E5A2
:0201750002E79F
:0201760002E99C
:0201770002EB99
:0201780002ED96
:0201790002EF93
:02017A0002F190
:02017B0002F38D
:02017C0002F58A
:02017D0002F787
:02017E0002F984
:02017F0002FB81
:0201800002FD7E
:0201810002FF7B
:02018200030177
:02018300030374
:02018400030571
:0201850003076E
:0201860003096B
:02018700030B68
:02018800030D65
:02018900030F62
:02018A0003115F
:02018B0003135C
:02018C00031559
:02018D00031756
:02018E00031953
:02018F00031B50
:02019000031D4D
:02019100031F4A
:02019200032147
:02019300032344
:02019400032541
:0201950003273E
:0201960003293B
:02019700032B38
:02019800032D35
:02019900032F32
:02019A0003312F
:02019B0003332C
:02019C00033529
:02019D00033726
:02019E00033923
:02019F00033B20
:0201A000033D1D
:0201A100033F1A
:0201A200034117
:0201A300034314
:0201A400034511
:0201A50003470E
:0201A60003490B
:0201A700034B08
:0201A800034C06
:0201A900034E03
:0201AA00035000
:0201AB000352FD
:0201AC000354FA
:0201AD000356F7
:0201AE000358F4
:0201AF00035AF1
:0201B000035CEE
:0201B100035EEB
:0201B2000360E8
:0201B3000362E5
:0201B4000364E2
:0201B5000366DF
:0201B6000368DC
:0201B700036AD9
:0201B800036CD6
:0201B900036ED3
:0201BA000370D0
:0201BB000372CD
:0201BC000374CA
:0201BD000376C7
:0201BE000378C4
:0201BF00037AC1
:0201C000037CBE
:0201C100037EBB
:0201C2000380B8
:0201C3000382B5
:0201C4000384B2
:0201C5000386AF
:0201C6000388AC
:0201C700038AA9
:0201C800038CA6
:0201C900038EA3
:0201CA000390A0
:0201CB0003929D
:0201CC0003949A
:0201CD00039697
:0201CE00039894
:0201CF00039A91
:0201D000039C8E
:0201D100039E8B
:0201D20003A088
:0201D30003A186
:0201D40003A383
:0201D50003A580
:0201D60003A77D
:0201D70003A97A
:0201D80003AB77
:0201D90003AD74
:0201DA0003AF71
:0201DB0003B16E
:0201DC0003B36B
:0201DD0003B568
:0201DE0003B765
:0201DF0003B962
:0201E00003BB5F
:0201E10003BD5C
:0201E20003BF59
:0201E30003C156
:0201E40003C353
:0201E50003C550
:0201E60003C74D
:0201E70003C94A
:0201E80003CB47
:0201E90003CD44
:0201EA0003CF41
:0201EB0003D13E
:0201EC0003D33B
:0201ED0003D538
:0201EE0003D735
:0201EF0003D932
:0201F00003DB2F
:0201F10003DD2C
:0201F20003DF29
:0201F30003E126
:0201F40003E323
:0201F50003E520
:0201F60003E71D
:0201F70003E81B
:0201F80003EA18
:0201F90003EC15
:0201FA0003EE12
:0201FB0003F00F
:0201FC0003F20C
:0201FD0003F409
:0201FE0003F606
:0201FF0003F803
:0202000003FAFF
:0202010003FCFC
:0202020003FEF9
:020203000400F5
:020204000402F2
:020205000404EF
:020206000406EC
:020207000408E9
:02020800040AE6
:02020900040CE3
:02020A00040EE0
:02020B000410DD
:02020C000412DA
:02020D000414D7
:02020E000416D4
:02020F000418D1
:02021000041ACE
:02021100041CCB
:02021200041EC8
:020213000420C5
:020214000422C2
:020215000424BF
:020216000426BC
:020217000427BA
:020218000429B7
:02021900042BB4
:02021A00042DB1
:02021B00042FAE
:02021C000431AB
:02021D000433A8
:02021E000435A5
:02021F000437A2
:0202200004399F
:02022100043B9C
:02022200043D99
:02022300043F96
:02022400044193
:02022500044390
:0202260004458D
:0202270004478A
:02022800044987
:02022900044B84
:02022A00044D81
:02022B00044F7E
:02022C0004517B
:02022D00045378
:02022E00045575
:02022F00045772
:0202300004596F
:02023100045B6C
:02023200045D69
:02023300045E67
:02023400046064
:02023500046261
:0202360004645E
:0202370004665B
:02023800046858
:02023900046A55
:02023A00046C52
:02023B00046E4F
:02023C0004704C
:02023D00047249
:02023E00047446
:02023F00047643
:02024000047840
:02024100047A3D
:02024200047C3A
:02024300047E37
:02024400048034
:02024500048231
:0202460004842E
:0202470004862B
:02024800048828
:02024900048A25
:02024A00048C22
:02024B00048E1F
:02024C0004901C
:02024D0004911A
:02024E00049317
:02024F00049514
:02025000049711
:0202510004990E
:02025200049B0B
:02025300049D08
:02025400049F05
:0202550004A102
:0202560004A3FF
:0202570004A5FC
:0202580004A7F9
:0202590004A9F6
:02025A0004ABF3
:02025B0004ADF0
:02025C0004AFED
:02025D0004B1EA
:02025E0004B3E7
:02025F0004B5E4
:0202600004B7E1
:0202610004B9DE
:0202620004BBDB
:0202630004BDD8
:0202640004BFD5
:0202650004C0D3
:0202660004C2D0
:0202670004C4CD
:0202680004C6CA
:0202690004C8C7
:02026A0004CAC4
:02026B0004CCC1
:02026C0004CEBE
:02026D0004D0BB
:02026E0004D2B8
:02026F0004D4B5
:0202700004D6B2
:0202710004D8AF
:0202720004DAAC
:0202730004DCA9
:0202740004DEA6
:0202750004E0A3
:0202760004E2A0
:0202770004E49D
:0202780004E69A
:0202790004E897
:02027A0004EA94
:02027B0004EB92
:02027C0004ED8F
:02027D0004EF8C
:02027E0004F189
:02027F0004F386
:0202800004F583
:0202810004F780
:0202820004F97D
:0202830004FB7A
:0202840004FD77
:0202850004FF74
:02028600050170
:0202870005036D
:0202880005056A
:02028900050767
:02028A00050964
:02028B00050B61
:02028C00050D5E
:02028D00050F5B
:02028E00051158
:02028F00051355
:02029000051453
:02029100051650
:0202920005184D
:02029300051A4A
:02029400051C47
:02029500051E44
:02029600052041
:0202970005223E
:0202980005243B
:02029900052638
:02029A00052835
:02029B00052A32
:02029C00052C2F
:02029D00052E2C
:02029E00053029
:02029F00053226
:0202A000053423
:0202A100053620
:0202A20005381D
:0202A30005391B
:0202A400053B18
:0202A500053D15
:0202A600053F12
:0202A70005410F
:0202A80005430C
:0202A900054509
:0202AA00054706
:0202AB00054903
:0202AC00054B00
:0202AD00054DFD
:0202AE00054FFA
:0202AF000551F7
:0202B0000553F4
:0202B1000555F1
:0202B2000557EE
:0202B3000559EB
:0202B400055BE8
:0202B500055CE6
:0202B600055EE3
:0202B7000560E0
:0202B8000562DD
:0202B9000564DA
:0202BA000566D7
:0202BB000568D4
:0202BC00056AD1
:0202BD00056CCE
:0202BE00056ECB
:0202BF000570C8
:0202C0000572C5
:0202C1000574C2
:0202C2000576BF
:0202C3000578BC
:0202C400057AB9
:0202C500057CB6
:0202C600057EB3
:0202C700057FB1
:0202C8000581AE
:0202C9000583AB
:0202CA000585A8
:0202CB000587A5
:0202CC000589A2
:0202CD00058B9F
:0202CE00058D9C
:0202CF00058F99
:0202D000059196
:0202D100059393
:0202D200059590
:0202D30005978D
:0202D40005998A
:0202D500059B87
:0202D600059D84
:0202D700059F81
:0202D80005A07F
:0202D90005A27C
:0202DA0005A479
:0202DB0005A676
:0202DC0005A873
:0202DD0005AA70
:0202DE0005AC6D
:0202DF0005AE6A
:0202E00005B067
:0202E10005B264
:0202E20005B461
:0202E30005B65E
:0202E40005B85B
:0202E50005BA58
:0202E60005BC55
:0202E70005BE52
:0202E80005BF50
:0202E90005C14D
:0202EA0005C34A
:0202EB0005C547
:0202EC0005C744
:0202ED0005C941
:0202EE0005CB3E
:0202EF0005CD3B
:0202F00005CF38
:0202F10005D135
:0202F20005D332
:0202F30005D52F
:0202F40005D72C
:0202F50005D929
:0202F60005DB26
:0202F70005DC24
:0202F80005DE21
:0202F90005E01E
:0202FA0005E21B
:0202FB0005E418
:0202FC0005E615
:0202FD0005E812
:0202FE0005EA0F
:0202FF0005EC0C
:0203000005EE08
:0203010005F005
:0203020005F202
:0203030005F4FF
:0203040005F6FC
:0203050005F8F9
:0203060005F9F7
:0203070005FBF4
:0203080005FDF1
:0203090005FFEE
:02030A000601EA
:02030B000603E7
:02030C000605E4
:02030D000607E1
:02030E000609DE
:02030F00060BDB
:02031000060DD8
:02031100060FD5
:020312000611D2
:020313000613CF
:020314000614CD
:020315000616CA
:020316000618C7
:02031700061AC4
:02031800061CC1
:02031900061EBE
:02031A000620BB
:02031B000622B8
:02031C000624B5
:02031D000626B2
:02031E000628AF
:02031F00062AAC
:02032000062CA9
:02032100062EA6
:02032200062FA4
:020323000631A1
:0203240006339E
:0203250006359B
:02032600063798
:02032700063995
:02032800063B92
:02032900063D8F
:02032A00063F8C
:02032B00064189
:02032C00064386
:02032D00064583
:02032E00064780
:02032F0006487E
:02033000064A7B
:02033100064C78
:02033200064E75
:02033300065072
:0203340006526F
:0203350006546C
:02033600065669
:02033700065866
:02033800065A63
:02033900065C60
:02033A00065E5D
:02033B0006605A
:02033C00066158
:02033D00066355
:02033E00066552
:02033F0006674F
:0203400006694C
:02034100066B49
:02034200066D46
:02034300066F43
:02034400067140
:0203450006733D
:0203460006753A
:02034700067737
:02034800067934
:02034900067A32
:02034A00067C2F
:02034B00067E2C
:02034C00068029
:02034D00068226
:02034E00068423
:02034F00068620
:0203500006881D
:02035100068A1A
:02035200068C17
:02035300068E14
:02035400069011
:0203550006910F
:0203560006930C
:02035700069509
:02035800069706
:02035900069903
:02035A00069B00
:02035B00069DFD
:02035C00069FFA
:02035D0006A1F7
:02035E0006A3F4
:02035F0006A5F1
:0203600006A7EE
:0203610006A8EC
:0203620006AAE9
:0203630006ACE6
:0203640006AEE3
:0203650006B0E0
:0203660006B2DD
:0203670006B4DA
:0203680006B6D7
:0203690006B8D4
:02036A0006BAD1
:02036B0006BCCE
:02036C0006BDCC
:02036D0006BFC9
:02036E0006C1C6
:02036F0006C3C3
:0203700006C5C0
:0203710006C7BD
:0203720006C9BA
:0203730006CBB7
:0203740006CDB4
:0203750006CFB1
:0203760006D1AE
:0203770006D3AB
:0203780006D4A9
:0203790006D6A6
:02037A0006D8A3
:02037B0006DAA0
:02037C0006DC9D
:02037D0006DE9A
:02037E0006E097
:02037F0006E294
:0203800006E491
:0203810006E68E
:0203820006E88B
:0203830006E989
:0203840006EB86
:0203850006ED83
:0203860006EF80
:0203870006F17D
:0203880006F37A
:0203890006F577
:02038A0006F774
:02038B0006F971
:02038C0006FB6E
:02038D0006FD6B
:02038E0006FE69
:02038F00070065
:02039000070262
:0203910007045F
:0203920007065C
:02039300070859
:02039400070A56
:02039500070C53
:02039600070E50
:0203970007104D
:0203980007114B
:02039900071348
:02039A00071545
:02039B00071742
:02039C0007193F
:02039D00071B3C
:02039E00071D39
:02039F00071F36
:0203A000072133
:0203A100072330
:0203A20007242E
:0203A30007262B
:0203A400072828
:0203A500072A25
:0203A600072C22
:0203A700072E1F
:0203A80007301C
:0203A900073219
:0203AA00073416
:0203AB00073613
:0203AC00073810
:0203AD0007390E
:0203AE00073B0B
:0203AF00073D08
:0203B000073F05
:0203B100074102
:0203B2000743FF
:0203B3000745FC
:0203B4000747F9
:0203B5000749F6
:0203B600074AF4
:0203B700074CF1
:0203B800074EEE
:0203B9000750EB
:0203BA000752E8
:0203BB000754E5
:0203BC000756E2
:0203BD000758DF
:0203BE00075ADC
:0203BF00075CD9
:0203C000075DD7
:0203C100075FD4
:0203C2000761D1
:0203C3000763CE
:0203C4000765CB
:0203C5000767C8
:0203C6000769C5
:0203C700076BC2
:0203C800076DBF
:0203C900076FBC
:0203CA000770BA
:0203CB000772B7
:0203CC000774B4
:0203CD000776B1
:0203CE000778AE
:0203CF00077AAB
:0203D000077CA8
:0203D100077EA5
:0203D2000780A2
:0203D3000781A0
:0203D40007839D
:0203D50007859A
:0203D600078797
:0203D700078994
:0203D800078B91
:0203D900078D8E
:0203DA00078F8B
:0203DB00079188
:0203DC00079286
:0203DD00079483
:0203DE00079680
:0203DF0007987D
:0203E000079A7A
:0203E100079C77
:0203E200079E74
:0203E30007A071
:0203E40007A26E
:0203E50007A36C
:0203E60007A569
:0203E70007A766
:0203E80007A963
:0203E90007AB60
:0203EA0007AD5D
:0203EB0007AF5A
:0203EC0007B157
:0203ED0007B354
:0203EE0007B452
:0203EF0007B64F
:0203F00007B84C
:0203F10007BA49
:0203F20007BC46
:0203F30007BE43
:0203F40007C040
:0203F50007C23D
:0203F60007C43A
:0203F70007C538
:0203F80007C735
:0203F90007C932
:0203FA0007CB2F
:0203FB0007CD2C
:0203FC0007CF29
:0203FD0007D126
:0203FE0007D323
:0203FF0007D421
:0204000007D61D
:0204010007D81A
:0204020007DA17
:0204030007DC14
:0204040007DE11
:0204050007E00E
:0204060007E20B
:0204070007E408
:0204080007E506
:0204090007E703
:02040A0007E900
:02040B0007EBFD
:02040C0007EDFA
:02040D0007EFF7
:02040E0007F1F4
:02040F0007F3F1
:0204100007F4EF
:0204110007F6EC
:0204120007F8E9
:0204130007FAE6
:0204140007FCE3
:0204150007FEE0
:020416000800DC
:020417000802D9
:020418000803D7
:020419000805D4
:02041A000807D1
:02041B000809CE
:02041C00080BCB
:02041D00080DC8
:02041E00080FC5
:02041F000811C2
:020420000812C0
:020421000814BD
:020422000816BA
:020423000818B7
:02042400081AB4
:02042500081CB1
:02042600081EAE
:020427000820AB
:020428000821A9
:020429000823A6
:02042A000825A3
:02042B000827A0
:02042C0008299D
:02042D00082B9A
:02042E00082D97
:02042F00082F94
:02043000083092
:0204310008328F
:0204320008348C
:02043300083689
:02043400083886
:02043500083A83
:02043600083C80
:02043700083E7D
:02043800083F7B
:02043900084178
:02043A00084375
:02043B00084572
:02043C0008476F
:02043D0008496C
:02043E00084B69
:02043F00084D66
:02044000084E64
:02044100085061
:0204420008525E
:0204430008545B
:02044400085658
:02044500085855
:02044600085A52
:02044700085B50
:02044800085D4D
:02044900085F4A
:02044A00086147
:02044B00086344
:02044C00086541
:02044D0008673E
:02044E0008693B
:02044F00086A39
:02045000086C36
:02045100086E33
:02045200087030
:0204530008722D
:0204540008742A
:02045500087627
:02045600087725
:02045700087922
:02045800087B1F
:02045900087D1C
:02045A00087F19
:02045B00088116
:02045C00088313
:02045D00088411
:02045E0008860E
:02045F0008880B
:02046000088A08
:02046100088C05
:02046200088E02
:020463000890FF
:020464000891FD
:020465000893FA
:020466000895F7
:020467000897F4
:020468000899F1
:02046900089BEE
:02046A00089DEB
:02046B00089FE8
:02046C0008A0E6
:02046D0008A2E3
:02046E0008A4E0
:02046F0008A6DD
:0204700008A8DA
:0204710008AAD7
:0204720008ACD4
:0204730008ADD2
:0204740008AFCF
:0204750008B1CC
:0204760008B3C9
:0204770008B5C6
:0204780008B7C3
:0204790008B9C0
:02047A0008BABE
:02047B0008BCBB
:02047C0008BEB8
:02047D0008C0B5
:02047E0008C2B2
:02047F0008C4AF
:0204800008C5AD
:0204810008C7AA
:0204820008C9A7
:0204830008CBA4
:0204840008CDA1
:0204850008CF9E
:0204860008D19B
:0204870008D299
:0204880008D496
:0204890008D693
:02048A0008D890
:02048B0008DA8D
:02048C0008DC8A
:02048D0008DE87
:02048E0008DF85
:02048F0008E182
:0204900008E37F
:0204910008E57C
:0204920008E779
:0204930008E976
:0204940008EB73
:0204950008EC71
:0204960008EE6E
:0204970008F06B
:0204980008F268
:0204990008F465
:02049A0008F662
:02049B0008F760
:02049C0008F95D
:02049D0008FB5A
:02049E0008FD57
:02049F0008FF54
:0204A000090150
:0204A10009034D
:0204A20009044B
:0204A300090648
:0204A400090845
:0204A500090A42
:0204A600090C3F
:0204A700090E3C
:0204A800090F3A
:0204A900091137
:0204AA00091334
:0204AB00091531
:0204AC0009172E
:0204AD0009192B
:0204AE00091A29
:0204AF00091C26
:0204B000091E23
:0204B100092020
:0204B20009221D
:0204B30009241A
:0204B400092617
:0204B500092715
:0204B600092912
:0204B700092B0F
:0204B800092D0C
:0204B900092F09
:0204BA00093106
:0204BB00093204
:0204BC00093401
:0204BD000936FE
:0204BE000938FB
:0204BF00093AF8
:0204C000093CF5
:0204C100093DF3
:0204C200093FF0
:0204C3000941ED
:0204C4000943EA
:0204C5000945E7
:0204C6000947E4
:0204C7000948E2
:0204C800094ADF
:0204C900094CDC
:0204CA00094ED9
:0204CB000950D6
:0204CC000952D3
:0204CD000953D1
:0204CE000955CE
:0204CF000957CB
:0204D0000959C8
:0204D100095BC5
:0204D200095DC2
:0204D300095EC0
:0204D4000960BD
:0204D5000962BA
:0204D6000964B7
:0204D7000966B4
:0204D8000968B1
:0204D9000969AF
:0204DA00096BAC
:0204DB00096DA9
:0204DC00096FA6
:0204DD000971A3
:0204DE000973A0
:0204DF0009749E
:0204E00009769B
:0204E100097898
:0204E200097A95
:0204E300097C92
:0204E400097E8F
:0204E500097F8D
:0204E60009818A
:0204E700098387
:0204E800098584
:0204E900098781
:0204EA0009897E
:0204EB00098A7C
:0204EC00098C79
:0204ED00098E76
:0204EE00099073
:0204EF00099270
:0204F00009946D
:0204F10009956B
:0204F200099768
:0204F300099965
:0204F400099B62
:0204F500099D5F
:0204F600099E5D
:0204F70009A05A
:0204F80009A257
:0204F90009A454
:0204FA0009A651
:0204FB0009A84E
:0204FC0009A94C
:0204FD0009AB49
:0204FE0009AD46
:0204FF0009AF43
:0205000009B13F
:0205010009B33C
:0205020009B43A
:0205030009B637
:0205040009B834
:0205050009BA31
:0205060009BC2E
:0205070009BD2C
:0205080009BF29
:0205090009C126
:02050A0009C323
:02050B0009C520
:02050C0009C71D
:02050D0009C81B
:02050E0009CA18
:02050F0009CC15
:0205100009CE12
:0205110009D00F
:0205120009D10D
:0205130009D30A
:0205140009D507
:0205150009D704
:0205160009D901
:0205170009DBFE
:0205180009DCFC
:0205190009DEF9
:02051A0009E0F6
:02051B0009E2F3
:02051C0009E4F0
:02051D0009E5EE
:02051E0009E7EB
:02051F0009E9E8
:0205200009EBE5
:0205210009EDE2
:0205220009EFDF
:0205230009F0DD
:0205240009F2DA
:0205250009F4D7
:0205260009F6D4
:0205270009F8D1
:0205280009F9CF
:0205290009FBCC
:02052A0009FDC9
:02052B0009FFC6
:02052C000A01C2
:02052D000A02C0
:02052E000A04BD
:02052F000A06BA
:020530000A08B7
:020531000A0AB4
:020532000A0CB1
:020533000A0DAF
:020534000A0FAC
:020535000A11A9
:020536000A13A6
:020537000A15A3
:020538000A16A1
:020539000A189E
:02053A000A1A9B
:02053B000A1C98
:02053C000A1E95
:02053D000A1F93
:02053E000A2190
:02053F000A238D
:020540000A258A
:020541000A2787
:020542000A2885
:020543000A2A82
:020544000A2C7F
:020545000A2E7C
:020546000A3079
:020547000A3177
:020548000A3374
:020549000A3571
:02054A000A376E
:02054B000A396B
:02054C000A3A69
:02054D000A3C66
:02054E000A3E63
:02054F000A4060
:020550000A425D
:020551000A435B
:020552000A4558
:020553000A4755
:020554000A4952
:020555000A4B4F
:020556000A4C4D
:020557000A4E4A
:020558000A5047
:020559000A5244
:02055A000A5441
:02055B000A553F
:02055C000A573C
:02055D000A5939
:02055E000A5B36
:02055F000A5D33
:020560000A5E31
:020561000A602E
:020562000A622B
:020563000A6428
:020564000A6625
:020565000A6723
:020566000A6920
:020567000A6B1D
:020568000A6D1A
:020569000A6F17
:02056A000A7015
:02056B000A7212
:02056C000A740F
:02056D000A760C
:02056E000A7809
:02056F000A7907
:020570000A7B04
:020571000A7D01
:020572000A7FFE
:020573000A81FB
:020574000A82F9
:020575000A84F6
:020576000A86F3
:020577000A88F0
:020578000A8AED
:020579000A8BEB
:02057A000A8DE8
:02057B000A8FE5
:02057C000A91E2
:02057D000A92E0
:02057E000A94DD
:02057F000A96DA
:020580000A98D7
:020581000A9AD4
:020582000A9BD2
:020583000A9DCF
:020584000A9FCC
:020585000AA1C9
:020586000AA3C6
:020587000AA4C4
:020588000AA6C1
:020589000AA8BE
:02058A000AAABB
:02058B000AABB9
:02058C000AADB6
:02058D000AAFB3
:02058E000AB1B0
:02058F000AB3AD
:020590000AB4AB
:020591000AB6A8
:020592000AB8A5
:020593000ABAA2
:020594000ABC9F
:020595000ABD9D
:020596000ABF9A
:020597000AC197
:020598000AC394
:020599000AC492
:02059A000AC68F
:02059B000AC88C
:02059C000ACA89
:02059D000ACC86
:02059E000ACD84
:02059F000ACF81
:0205A0000AD17E
:0205A1000AD37B
:0205A2000AD479
:0205A3000AD676
:0205A4000AD873
:0205A5000ADA70
:0205A6000ADC6D
:0205A7000ADD6B
:0205A8000ADF68
:0205A9000AE165
:0205AA000AE362
:0205AB000AE55F
:0205AC000AE65D
:0205AD000AE85A
:0205AE000AEA57
:0205AF000AEC54
:0205B0000AED52
:0205B1000AEF4F
:0205B2000AF14C
:0205B3000AF349
:0205B4000AF447
:0205B5000AF644
:0205B6000AF841
:0205B7000AFA3E
:0205B8000AFC3B
:0205B9000AFD39
:0205BA000AFF36
:0205BB000B0132
:0205BC000B032F
:0205BD000B042D
:0205BE000B062A
:0205BF000B0827
:0205C0000B0A24
:0205C1000B0C21
:0205C2000B0D1F
:0205C3000B0F1C
:0205C4000B1119
:0205C5000B1316
:0205C6000B1414
:0205C7000B1611
:0205C8000B180E
:0205C9000B1A0B
:0205CA000B1B09
:0205CB000B1D06
:0205CC000B1F03
:0205CD000B2100
:0205CE000B23FD
:0205CF000B24FB
:0205D0000B26F8
:0205D1000B28F5
:0205D2000B2AF2
:0205D3000B2BF0
:0205D4000B2DED
:0205D5000B2FEA
:0205D6000B31E7
:0205D7000B32E5
:0205D8000B34E2
:0205D9000B36DF
:0205DA000B38DC
:0205DB000B39DA
:0205DC000B3BD7
:0205DD000B3DD4
:0205DE000B3FD1
:0205DF000B41CE
:0205E0000B42CC
:0205E1000B44C9
:0205E2000B46C6
:0205E3000B48C3
:0205E4000B49C1
:0205E5000B4BBE
:0205E6000B4DBB
:0205E7000B4FB8
:0205E8000B50B6
:0205E9000B52B3
:0205EA000B54B0
:0205EB000B56AD
:0205EC000B57AB
:0205ED000B59A8
:0205EE000B5BA5
:0205EF000B5DA2
:0205F0000B5EA0
:0205F1000B609D
:0205F2000B629A
:0205F3000B6497
:0205F4000B6595
:0205F5000B6792
:0205F6000B698F
:0205F7000B6B8C
:0205F8000B6D89
:0205F9000B6E87
:0205FA000B7084
:0205FB000B7281
:0205FC000B747E
:0205FD000B757C
:0205FE000B7779
:0205FF000B7976
:020600000B7B72
:020601000B7C70
:020602000B7E6D
:020603000B806A
:020604000B8267
:020605000B8365
:020606000B8562
:020607000B875F
:020608000B895C
:020609000B8A5A
:02060A000B8C57
:02060B000B8E54
:02060C000B9051
:02060D000B914F
:02060E000B934C
:02060F000B9549
:020610000B9746
:020611000B9844
:020612000B9A41
:020613000B9C3E
:020614000B9E3B
:020615000B9F39
:020616000BA136
:020617000BA333
:020618000BA530
:020619000BA62E
:02061A000BA82B
:02061B000BAA28
:02061C000BAC25
:02061D000BAD23
:02061E000BAF20
:02061F000BB11D
:020620000BB31A
:020621000BB418
:020622000BB615
:020623000BB812
:020624000BB910
:020625000BBB0D
:020626000BBD0A
:020627000BBF07
:020628000BC005
:020629000BC202
:02062A000BC4FF
:02062B000BC6FC
:02062C000BC7FA
:02062D000BC9F7
:02062E000BCBF4
:02062F000BCDF1
:020630000BCEEF
:020631000BD0EC
:020632000BD2E9
:020633000BD4E6
:020634000BD5E4
:020635000BD7E1
:020636000BD9DE
:020637000BDBDB
:020638000BDCD9
:020639000BDED6
:02063A000BE0D3
:02063B000BE2D0
:02063C000BE3CE
:02063D000BE5CB
:02063E000BE7C8
:02063F000BE8C6
:020640000BEAC3
:020641000BECC0
:020642000BEEBD
:020643000BEFBB
:020644000BF1B8
:020645000BF3B5
:020646000BF5B2
:020647000BF6B0
:020648000BF8AD
:020649000BFAAA
:02064A000BFCA7
:02064B000BFDA5
:02064C000BFFA2
:02064D000C019E
:02064E000C029C
:02064F000C0499
:020650000C0696
:020651000C0893
:020652000C0991
:020653000C0B8E
:020654000C0D8B
:020655000C0F88
:020656000C1086
:020657000C1283
:020658000C1480
:020659000C157E
:02065A000C177B
:02065B000C1978
:02065C000C1B75
:02065D000C1C73
:02065E000C1E70
:02065F000C206D
:020660000C226A
:020661000C2368
:020662000C2565
:020663000C2762
:020664000C2860
:020665000C2A5D
:020666000C2C5A
:020667000C2E57
:020668000C2F55
:020669000C3152
:02066A000C334F
:02066B000C354C
:02066C000C364A
:02066D000C3847
:02066E000C3A44
:02066F000C3B42
:020670000C3D3F
:020671000C3F3C
:020672000C4139
:020673000C4237
:020674000C4434
:020675000C4631
:020676000C472F
:020677000C492C
:020678000C4B29
:020679000C4D26
:02067A000C4E24
:02067B000C5021
:02067C000C521E
:02067D000C531C
:02067E000C5519
:02067F000C5716
:020680000C5913
:020681000C5A11
:020682000C5C0E
:020683000C5E0B
:020684000C6008
:020685000C6106
:020686000C6303
:020687000C6500
:020688000C66FE
:020689000C68FB
:02068A000C6AF8
:02068B000C6CF5
:02068C000C6DF3
:02068D000C6FF0
:02068E000C71ED
:02068F000C72EB
:020690000C74E8
:020691000C76E5
:020692000C78E2
:020693000C79E0
:020694000C7BDD
:020695000C7DDA
:020696000C7ED8
:020697000C80D5
:020698000C82D2
:020699000C83D0
:02069A000C85CD
:02069B000C87CA
:02069C000C89C7
:02069D000C8AC5
:02069E000C8CC2
:02069F000C8EBF
:0206A0000C8FBD
:0206A1000C91BA
:0206A2000C93B7
:0206A3000C95B4
:0206A4000C96B2
:0206A5000C98AF
:0206A6000C9AAC
:0206A7000C9BAA
:0206A8000C9DA7
:0206A9000C9FA4
:0206AA000CA0A2
:0206AB000CA29F
:0206AC000CA49C
:0206AD000CA699
:0206AE000CA797
:0206AF000CA994
:0206B0000CAB91
:0206B1000CAC8F
:0206B2000CAE8C
:0206B3000CB089
:0206B4000CB286
:0206B5000CB384
:0206B6000CB581
:0206B7000CB77E
:0206B8000CB87C
:0206B9000CBA79
:0206BA000CBC76
:0206BB000CBD74
:0206BC000CBF71
:0206BD000CC16E
:0206BE000CC36B
:0206BF000CC469
:0206C0000CC666
:0206C1000CC863
:0206C2000CC961
:0206C3000CCB5E
:0206C4000CCD5B
:0206C5000CCE59
:0206C6000CD056
:0206C7000CD253
:0206C8000CD351
:0206C9000CD54E
:0206CA000CD74B
:0206CB000CD948
:0206CC000CDA46
:0206CD000CDC43
:0206CE000CDE40
:0206CF000CDF3E
:0206D0000CE13B
:0206D1000CE338
:0206D2000CE436
:0206D3000CE633
:0206D4000CE830
:0206D5000CEA2D
:0206D6000CEB2B
:0206D7000CED28
:0206D8000CEF25
:0206D9000CF023
:0206DA000CF220
:0206DB000CF41D
:0206DC000CF51B
:0206DD000CF718
:0206DE000CF915
:0206DF000CFA13
:0206E0000CFC10
:0206E1000CFE0D
:0206E2000CFF0B
:0206E3000D0107
:0206E4000D0304
:0206E5000D0501
:0206E6000D06FF
:0206E7000D08FC
:0206E8000D0AF9
:0206E9000D0BF7
:0206EA000D0DF4
:0206EB000D0FF1
:0206EC000D10EF
:0206ED000D12EC
:0206EE000D14E9
:0206EF000D15E7
:0206F0000D17E4
:0206F1000D19E1
:0206F2000D1ADF
:0206F3000D1CDC
:0206F4000D1ED9
:0206F5000D1FD7
:0206F6000D21D4
:0206F7000D23D1
:0206F8000D25CE
:0206F9000D26CC
:0206FA000D28C9
:0206FB000D2AC6
:0206FC000D2BC4
:0206FD000D2DC1
:0206FE000D2FBE
:0206FF000D30BC
:020700000D32B8
:020701000D34B5
:020702000D35B3
:020703000D37B0
:020704000D39AD
:020705000D3AAB
:020706000D3CA8
:020707000D3EA5
:020708000D3FA3
:020709000D41A0
:02070A000D439D
:02070B000D449B
:02070C000D4698
:02070D000D4895
:02070E000D4993
:02070F000D4B90
:020710000D4D8D
:020711000D4E8B
:020712000D5088
:020713000D5285
:020714000D5383
:020715000D5580
:020716000D577D
:020717000D587B
:020718000D5A78
:020719000D5C75
:02071A000D5E72
:02071B000D5F70
:02071C000D616D
:02071D000D636A
:02071E000D6468
:02071F000D6665
:020720000D6862
:020721000D6960
:020722000D6B5D
:020723000D6D5A
:020724000D6E58
:020725000D7055
:020726000D7252
:020727000D7350
:020728000D754D
:020729000D774A
:02072A000D7848
:02072B000D7A45
:02072C000D7C42
:02072D000D7D40
:02072E000D7F3D
:02072F000D813A
:020730000D8238
:020731000D8435
:020732000D8632
:020733000D8730
:020734000D892D
:020735000D8B2A
:020736000D8C28
:020737000D8E25
:020738000D8F23
:020739000D9120
:02073A000D931D
:02073B000D941B
:02073C000D9618
:02073D000D9815
:02073E000D9913
:02073F000D9B10
:020740000D9D0D
:020741000D9E0B
:020742000DA008
:020743000DA205
:020744000DA303
:020745000DA500
:020746000DA7FD
:020747000DA8FB
:020748000DAAF8
:020749000DACF5
:02074A000DADF3
:02074B000DAFF0
:02074C000DB1ED
:02074D000DB2EB
:02074E000DB4E8
:02074F000DB6E5
:020750000DB7E3
:020751000DB9E0
:020752000DBBDD
:020753000DBCDB
:020754000DBED8
:020755000DC0D5
:020756000DC1D3
:020757000DC3D0
:020758000DC5CD
:020759000DC6CB
:02075A000DC8C8
:02075B000DC9C6
:02075C000DCBC3
:02075D000DCDC0
:02075E000DCEBE
:02075F000DD0BB
:020760000DD2B8
:020761000DD3B6
:020762000DD5B3
:020763000DD7B0
:020764000DD8AE
:020765000DDAAB
:020766000DDCA8
:020767000DDDA6
:020768000DDFA3
:020769000DE1A0
:02076A000DE29E
:02076B000DE49B
:02076C000DE599
:02076D000DE796
:02076E000DE993
:02076F000DEA91
:020770000DEC8E
:020771000DEE8B
:020772000DEF89
:020773000DF186
:020774000DF383
:020775000DF481
:020776000DF67E
:020777000DF87B
:020778000DF979
:020779000DFB76
:02077A000DFD73
:02077B000DFE71
:02077C000E006D
:02077D000E016B
:02077E000E0368
:02077F000E0565
:020780000E0663
:020781000E0860
:020782000E0A5D
:020783000E0B5B
:020784000E0D58
:020785000E0F55
:020786000E1053
:020787000E1250
:020788000E134E
:020789000E154B
:02078A000E1748
:02078B000E1846
:02078C000E1A43
:02078D000E1C40
:02078E000E1D3E
:02078F000E1F3B
:020790000E2138
:020791000E2236
:020792000E2433
:020793000E2531
:020794000E272E
:020795000E292B
:020796000E2A29
:020797000E2C26
:020798000E2E23
:020799000E2F21
:02079A000E311E
:02079B000E331B
:02079C000E3419
:02079D000E3616
:02079E000E3714
:02079F000E3911
:0207A0000E3B0E
:0207A1000E3C0C
:0207A2000E3E09
:0207A3000E4006
:0207A4000E4104
:0207A5000E4301
:0207A6000E44FF
:0207A7000E46FC
:0207A8000E48F9
:0207A9000E49F7
:0207AA000E4BF4
:0207AB000E4DF1
:0207AC000E4EEF
:0207AD000E50EC
:0207AE000E51EA
:0207AF000E53E7
:0207B0000E55E4
:0207B1000E56E2
:0207B2000E58DF
:0207B3000E5ADC
:0207B4000E5BDA
:0207B5000E5DD7
:0207B6000E5ED5
:0207B7000E60D2
:0207B8000E62CF
:0207B9000E63CD
:0207BA000E65CA
:0207BB000E67C7
:0207BC000E68C5
:0207BD000E6AC2
:0207BE000E6BC0
:0207BF000E6DBD
:0207C0000E6FBA
:0207C1000E70B8
:0207C2000E72B5
:0207C3000E74B2
:0207C4000E75B0
:0207C5000E77AD
:0207C6000E78AB
:0207C7000E7AA8
:0207C8000E7CA5
:0207C9000E7DA3
:0207CA000E7FA0
:0207CB000E809E
:0207CC000E829B
:0207CD000E8498
:0207CE000E8596
:0207CF000E8793
:0207D0000E8990
:0207D1000E8A8E
:0207D2000E8C8B
:0207D3000E8D89
:0207D4000E8F86
:0207D5000E9183
:0207D6000E9281
:0207D7000E947E
:0207D8000E957C
:0207D9000E9779
:0207DA000E9976
:0207DB000E9A74
:0207DC000E9C71
:0207DD000E9E6E
:0207DE000E9F6C
:0207DF000EA169
:0207E0000EA267
:0207E1000EA464
:0207E2000EA661
:0207E3000EA75F
:0207E4000EA95C
:0207E5000EAA5A
:0207E6000EAC57
:0207E7000EAE54
:0207E8000EAF52
:0207E9000EB14F
:0207EA000EB24D
:0207EB000EB44A
:0207EC000EB647
:0207ED000EB745
:0207EE000EB942
:0207EF000EBA40
:0207F0000EBC3D
:0207F1000EBE3A
:0207F2000EBF38
:0207F3000EC135
:0207F4000EC233
:0207F5000EC430
:0207F6000EC62D
:0207F7000EC72B
:0207F8000EC928
:0207F9000ECA26
:0207FA000ECC23
:0207FB000ECE20
:0207FC000ECF1E
:0207FD000ED11B
:0207FE000ED318
:0207FF000ED416
:020800000ED612
:020801000ED710
:020802000ED90D
:020803000EDA0B
:020804000EDC08
:020805000EDE05
:020806000EDF03
:020807000EE100
:020808000EE2FE
:020809000EE4FB
:02080A000EE6F8
:02080B000EE7F6
:02080C000EE9F3
:02080D000EEAF1
:02080E000EECEE
:02080F000EEEEB
:020810000EEFE9
:020811000EF1E6
:020812000EF2E4
:020813000EF4E1
:020814000EF6DE
:020815000EF7DC
:020816000EF9D9
:020817000EFAD7
:020818000EFCD4
:020819000EFED1
:02081A000EFFCF
:02081B000F01CB
:02081C000F02C9
:02081D000F04C6
:02081E000F06C3
:02081F000F07C1
:020820000F09BE
:020821000F0ABC
:020822000F0CB9
:020823000F0EB6
:020824000F0FB4
:020825000F11B1
:020826000F12AF
:020827000F14AC
:020828000F15AA
:020829000F17A7
:02082A000F19A4
:02082B000F1AA2
:02082C000F1C9F
:02082D000F1D9D
:02082E000F1F9A
:02082F000F2197
:020830000F2295
:020831000F2492
:020832000F2590
:020833000F278D
:020834000F288B
:020835000F2A88
:020836000F2C85
:020837000F2D83
:020838000F2F80
:020839000F307E
:02083A000F327B
:02083B000F3478
:02083C000F3576
:02083D000F3773
:02083E000F3871
:02083F000F3A6E
:020840000F3B6C
:020841000F3D69
:020842000F3F66
:020843000F4064
:020844000F4261
:020845000F435F
:020846000F455C
:020847000F4759
:020848000F4857
:020849000F4A54
:02084A000F4B52
:02084B000F4D4F
:02084C000F4E4D
:02084D000F504A
:02084E000F5247
:02084F000F5345
:020850000F5542
:020851000F5640
:020852000F583D
:020853000F593B
:020854000F5B38
:020855000F5D35
:020856000F5E33
:020857000F6030
:020858000F612E
:020859000F632B
:02085A000F6429
:02085B000F6626
:02085C000F6823
:02085D000F6921
:02085E000F6B1E
:02085F000F6C1C
:020860000F6E19
:020861000F6F17
:020862000F7114
:020863000F7311
:020864000F740F
:020865000F760C
:020866000F770A
:020867000F7907
:020868000F7A05
:020869000F7C02
:02086A000F7EFF
:02086B000F7FFD
:02086C000F81FA
:02086D000F82F8
:02086E000F84F5
:02086F000F85F3
:020870000F87F0
:020871000F88EE
:020872000F8AEB
:020873000F8CE8
:020874000F8DE6
:020875000F8FE3
:020876000F90E1
:020877000F92DE
:020878000F93DC
:020879000F95D9
:02087A000F97D6
:02087B000F98D4
:02087C000F9AD1
:02087D000F9BCF
:02087E000F9DCC
:02087F000F9ECA
:020880000FA0C7
:020881000FA1C5
:020882000FA3C2
:020883000FA5BF
:020884000FA6BD
:020885000FA8BA
:020886000FA9B8
:020887000FABB5
:020888000FACB3
:020889000FAEB0
:02088A000FB0AD
:02088B000FB1AB
:02088C000FB3A8
:02088D000FB4A6
:02088E000FB6A3
:02088F000FB7A1
:020890000FB99E
:020891000FBA9C
:020892000FBC99
:020893000FBE96
:020894000FBF94
:020895000FC191
:020896000FC28F
:020897000FC48C
:020898000FC58A
:020899000FC787
:02089A000FC885
:02089B000FCA82
:02089C000FCB80
:02089D000FCD7D
:02089E000FCF7A
:02089F000FD078
:0208A0000FD275
:0208A1000FD373
:0208A2000FD570
:0208A3000FD66E
:0208A4000FD86B
:0208A5000FD969
:0208A6000FDB66
:0208A7000FDD63
:0208A8000FDE61
:0208A9000FE05E
:0208AA000FE15C
:0208AB000FE359
:0208AC000FE457
:0208AD000FE654
:0208AE000FE752
:0208AF000FE94F
:0208B0000FEA4D
:0208B1000FEC4A
:0208B2000FEE47
:0208B3000FEF45
:0208B4000FF142
:0208B5000FF240
:0208B6000FF43D
:0208B7000FF53B
:0208B8000FF738
:0208B9000FF836
:0208BA000FFA33
:0208BB000FFB31
:0208BC000FFD2E
:0208BD000FFE2C
:0208BE00100028
:0208BF00100225
:0208C000100323
:0208C100100520
:0208C20010061E
:0208C30010081B
:0208C400100919
:0208C500100B16
:0208C600100C14
:0208C700100E11
:0208C800100F0F
:0208C90010110C
:0208CA0010120A
:0208CB00101407
:0208CC00101604
:0208CD00101702
:0208CE001019FF
:0208CF00101AFD
:0208D000101CFA
:0208D100101DF8
:0208D200101FF5
:0208D3001020F3
:0208D4001022F0
:0208D5001023EE
:0208D6001025EB
:0208D7001026E9
:0208D8001028E6
:0208D900102AE3
:0208DA00102BE1
:0208DB00102DDE
:0208DC00102EDC
:0208DD001030D9
:0208DE001031D7
:0208DF001033D4
:0208E0001034D2
:0208E1001036CF
:0208E2001037CD
:0208E3001039CA
:0208E400103AC8
:0208E500103CC5
:0208E600103DC3
:0208E700103FC0
:0208E8001040BE
:0208E9001042BB
:0208EA001043B9
:0208EB001045B6
:0208EC001047B3
:0208ED001048B1
:0208EE00104AAE
:0208EF00104BAC
:0208F000104DA9
:0208F100104EA7
:0208F2001050A4
:0208F3001051A2
:0208F40010539F
:0208F50010549D
:0208F60010569A
:0208F700105798
:0208F800105995
:0208F900105A93
:0208FA00105C90
:0208FB00105D8E
:0208FC00105F8B
:0208FD00106089
:0208FE00106286
:0208FF00106384
:02090000106580
:0209010010677D
:0209020010687B
:02090300106A78
:02090400106B76
:02090500106D73
:02090600106E71
:0209070010706E
:0209080010716C
:02090900107369
:02090A00107467
:02090B00107664
:02090C00107762
:02090D0010795F
:02090E00107A5D
:02090F00107C5A
:02091000107D58
:02091100107F55
:02091200108053
:02091300108250
:0209140010834E
:0209150010854B
:02091600108649
:02091700108846
:02091800108944
:02091900108B41
:02091A00108C3F
:02091B00108E3C
:02091C00108F3A
:02091D00109137
:02091E00109235
:02091F00109432
:02092000109530
:0209210010972D
:0209220010982B
:02092300109A28
:02092400109B26
:02092500109D23
:02092600109E21
:0209270010A01E
:0209280010A21B
:0209290010A319
:02092A0010A516
:02092B0010A614
:02092C0010A811
:02092D0010A90F
:02092E0010AB0C
:02092F0010AC0A
:0209300010AE07
:0209310010AF05
:0209320010B102
:0209330010B200
:0209340010B4FD
:0209350010B5FB
:0209360010B7F8
:0209370010B8F6
:0209380010BAF3
:0209390010BBF1
:02093A0010BDEE
:02093B0010BEEC
:02093C0010C0E9
:02093D0010C1E7
:02093E0010C3E4
:02093F0010C4E2
:0209400010C6DF
:0209410010C7DD
:0209420010C9DA
:0209430010CAD8
:0209440010CCD5
:0209450010CDD3
:0209460010CFD0
:0209470010D0CE
:0209480010D2CB
:0209490010D3C9
:02094A0010D5C6
:02094B0010D6C4
:02094C0010D8C1
:02094D0010D9BF
:02094E0010DBBC
:02094F0010DCBA
:0209500010DEB7
:0209510010DFB5
:0209520010E1B2
:0209530010E2B0
:0209540010E3AE
:0209550010E5AB
:0209560010E6A9
:0209570010E8A6
:0209580010E9A4
:0209590010EBA1
:02095A0010EC9F
:02095B0010EE9C
:02095C0010EF9A
:02095D0010F197
:02095E0010F295
:02095F0010F492
:0209600010F590
:0209610010F78D
:0209620010F88B
:0209630010FA88
:0209640010FB86
:0209650010FD83
:0209660010FE81
:0209670011007D
:0209680011017B
:02096900110378
:02096A00110476
:02096B00110673
:02096C00110771
:02096D0011096E
:02096E00110A6C
:02096F00110C69
:02097000110D67
:02097100110F64
:02097200111062
:0209730011125F
:0209740011135D
:0209750011155A
:02097600111658
:02097700111855
:02097800111953
:02097900111B50
:02097A00111C4E
:02097B00111D4C
:02097C00111F49
:02097D00112047
:02097E00112244
:02097F00112342
:0209800011253F
:0209810011263D
:0209820011283A
:02098300112938
:02098400112B35
:02098500112C33
:02098600112E30
:02098700112F2E
:0209880011312B
:02098900113229
:02098A00113426
:02098B00113524
:02098C00113721
:02098D0011381F
:02098E00113A1C
:02098F00113B1A
:02099000113C18
:02099100113E15
:02099200113F13
:02099300114110
:0209940011420E
:0209950011440B
:02099600114509
:02099700114706
:02099800114804
:02099900114A01
:02099A00114BFF
:02099B00114DFC
:02099C00114EFA
:02099D001150F7
:02099E001151F5
:02099F001153F2
:0209A0001154F0
:0209A1001155EE
:0209A2001157EB
:0209A3001158E9
:0209A400115AE6
:0209A500115BE4
:0209A600115DE1
:0209A700115EDF
:0209A8001160DC
:0209A9001161DA
:0209AA001163D7
:0209AB001164D5
:0209AC001166D2
:0209AD001167D0
:0209AE001169CD
:0209AF00116ACB
:0209B000116BC9
:0209B100116DC6
:0209B200116EC4
:0209B3001170C1
:0209B4001171BF
:0209B5001173BC
:0209B6001174BA
:0209B7001176B7
:0209B8001177B5
:0209B9001179B2
:0209BA00117AB0
:0209BB00117CAD
:0209BC00117DAB
:0209BD00117EA9
:0209BE001180A6
:0209BF001181A4
:0209C0001183A1
:0209C10011849F
:0209C20011869C
:0209C30011879A
:0209C400118997
:0209C500118A95
:0209C600118C92
:0209C700118D90
:0209C800118F8D
:0209C90011908B
:0209CA00119189
:0209CB00119386
:0209CC00119484
:0209CD00119681
:0209CE0011977F
:0209CF0011997C
:0209D000119A7A
:0209D100119C77
:0209D200119D75
:0209D300119F72
:0209D40011A070
:0209D50011A16E
:0209D60011A36B
:0209D70011A469
:0209D80011A666
:0209D90011A764
:0209DA0011A961
:0209DB0011AA5F
:0209DC0011AC5C
:0209DD0011AD5A
:0209DE0011AE58
:0209DF0011B055
:0209E00011B153
:0209E10011B350
:0209E20011B44E
:0209E30011B64B
:0209E40011B749
:0209E50011B946
:0209E60011BA44
:0209E70011BB42
:0209E80011BD3F
:0209E90011BE3D
:0209EA0011C03A
:0209EB0011C138
:0209EC0011C335
:0209ED0011C433
:0209EE0011C630
:0209EF0011C72E
:0209F00011C82C
:0209F10011CA29
:0209F20011CB27
:0209F30011CD24
:0209F40011CE22
:0209F50011D01F
:0209F60011D11D
:0209F70011D31A
:0209F80011D418
:0209F90011D516
:0209FA0011D713
:0209FB0011D811
:0209FC0011DA0E
:0209FD0011DB0C
:0209FE0011DD09
:0209FF0011DE07
:020A000011E003
:020A010011E101
:020A020011E2FF
:020A030011E4FC
:020A040011E5FA
:020A050011E7F7
:020A060011E8F5
:020A070011EAF2
:020A080011EBF0
:020A090011ECEE
:020A0A0011EEEB
:020A0B0011EFE9
:020A0C0011F1E6
:020A0D0011F2E4
:020A0E0011F4E1
:020A0F0011F5DF
:020A100011F7DC
:020A110011F8DA
:020A120011F9D8
:020A130011FBD5
:020A140011FCD3
:020A150011FED0
:020A160011FFCE
:020A17001201CA
:020A18001202C8
:020A19001203C6
:020A1A001205C3
:020A1B001206C1
:020A1C001208BE
:020A1D001209BC
:020A1E00120BB9
:020A1F00120CB7
:020A2000120DB5
:020A2100120FB2
:020A22001210B0
:020A23001212AD
:020A24001213AB
:020A25001215A8
:020A26001216A6
:020A27001217A4
:020A28001219A1
:020A2900121A9F
:020A2A00121C9C
:020A2B00121D9A
:020A2C00121F97
:020A2D00122095
:020A2E00122193
:020A2F00122390
:020A300012248E
:020A310012268B
:020A3200122789
:020A3300122887
:020A3400122A84
:020A3500122B82
:020A3600122D7F
:020A3700122E7D
:020A380012307A
:020A3900123178
:020A3A00123276
:020A3B00123473
:020A3C00123571
:020A3D0012376E
:020A3E0012386C
:020A3F00123A69
:020A4000123B67
:020A4100123C65
:020A4200123E62
:020A4300123F60
:020A440012415D
:020A450012425B
:020A4600124359
:020A4700124556
:020A4800124654
:020A4900124851
:020A4A0012494F
:020A4B00124B4C
:020A4C00124C4A
:020A4D00124D48
:020A4E00124F45
:020A4F00125043
:020A5000125240
:020A510012533E
:020A520012543C
:020A5300125639
:020A5400125737
:020A5500125934
:020A5600125A32
:020A5700125B30
:020A5800125D2D
:020A5900125E2B
:020A5A00126028
:020A5B00126126
:020A5C00126323
:020A5D00126421
:020A5E0012651F
:020A5F0012671C
:020A600012681A
:020A6100126A17
:020A6200126B15
:020A6300126C13
:020A6400126E10
:020A6500126F0E
:020A660012710B
:020A6700127209
:020A6800127307
:020A6900127504
:020A6A00127602
:020A6B001278FF
:020A6C001279FD
:020A6D00127AFB
:020A6E00127CF8
:020A6F00127DF6
:020A7000127FF3
:020A71001280F1
:020A72001281EF
:020A73001283EC
:020A74001284EA
:020A75001286E7
:020A76001287E5
:020A77001288E3
:020A7800128AE0
:020A7900128BDE
:020A7A00128DDB
:020A7B00128ED9
:020A7C00128FD7
:020A7D001291D4
:020A7E001292D2
:020A7F001294CF
:020A80001295CD
:020A81001296CB
:020A82001298C8
:020A83001299C6
:020A8400129BC3
:020A8500129CC1
:020A8600129DBF
:020A8700129FBC
:020A880012A0BA
:020A890012A2B7
:020A8A0012A3B5
:020A8B0012A4B3
:020A8C0012A6B0
:020A8D0012A7AE
:020A8E0012A9AB
:020A8F0012AAA9
:020A900012ABA7
:020A910012ADA4
:020A920012AEA2
:020A930012B09F
:020A940012B19D
:020A950012B29B
:020A960012B498
:020A970012B596
:020A980012B793
:020A990012B891
:020A9A0012B98F
:020A9B0012BB8C
:020A9C0012BC8A
:020A9D0012BD88
:020A9E0012BF85
:020A9F0012C083
:020AA00012C280
:020AA10012C37E
:020AA20012C47C
:020AA30012C679
:020AA40012C777
:020AA50012C974
:020AA60012CA72
:020AA70012CB70
:020AA80012CD6D
:020AA90012CE6B
:020AAA0012CF69
:020AAB0012D166
:020AAC0012D264
:020AAD0012D461
:020AAE0012D55F
:020AAF0012D65D
:020AB00012D85A
:020AB10012D958
:020AB20012DB55
:020AB30012DC53
:020AB40012DD51
:020AB50012DF4E
:020AB60012E04C
:020AB70012E14A
:020AB80012E347
:020AB90012E445
:020ABA0012E642
:020ABB0012E740
:020ABC0012E83E
:020ABD0012EA3B
:020ABE0012EB39
:020ABF0012ED36
:020AC00012EE34
:020AC10012EF32
:020AC20012F12F
:020AC30012F22D
:020AC40012F32B
:020AC50012F528
:020AC60012F626
:020AC70012F823
:020AC80012F921
:020AC90012FA1F
:020ACA0012FC1C
:020ACB0012FD1A
:020ACC0012FE18
:020ACD00130014
:020ACE00130112
:020ACF0013030F
:020AD00013040D
:020AD10013050B
:020AD200130708
:020AD300130806
:020AD400130904
:020AD500130B01
:020AD600130CFF
:020AD700130DFD
:020AD800130FFA
:020AD9001310F8
:020ADA001312F5
:020ADB001313F3
:020ADC001314F1
:020ADD001316EE
:020ADE001317EC
:020ADF001318EA
:020AE000131AE7
:020AE100131BE5
:020AE200131DE2
:020AE300131EE0
:020AE400131FDE
:020AE5001321DB
:020AE6001322D9
:020AE7001323D7
:020AE8001325D4
:020AE9001326D2
:020AEA001327D0
:020AEB001329CD
:020AEC00132ACB
:020AED00132CC8
:020AEE00132DC6
:020AEF00132EC4
:020AF0001330C1
:020AF1001331BF
:020AF2001332BD
:020AF3001334BA
:020AF4001335B8
:020AF5001336B6
:020AF6001338B3
:020AF7001339B1
:020AF800133BAE
:020AF900133CAC
:020AFA00133DAA
:020AFB00133FA7
:020AFC001340A5
:020AFD001341A3
:020AFE001343A0
:020AFF0013449E
:020B000013459B
:020B0100134798
:020B0200134896
:020B0300134A93
:020B0400134B91
:020B0500134C8F
:020B0600134E8C
:020B0700134F8A
:020B0800135088
:020B0900135285
:020B0A00135383
:020B0B00135481
:020B0C0013567E
:020B0D0013577C
:020B0E0013587A
:020B0F00135A77
:020B1000135B75
:020B1100135C73
:020B1200135E70
:020B1300135F6E
:020B140013616B
:020B1500136269
:020B1600136367
:020B1700136564
:020B1800136662
:020B1900136760
:020B1A0013695D
:020B1B00136A5B
:020B1C00136B59
:020B1D00136D56
:020B1E00136E54
:020B1F00136F52
:020B200013714F
:020B210013724D
:020B220013734B
:020B2300137548
:020B2400137646
:020B2500137744
:020B2600137941
:020B2700137A3F
:020B2800137C3C
:020B2900137D3A
:020B2A00137E38
:020B2B00138035
:020B2C00138133
:020B2D00138231
:020B2E0013842E
:020B2F0013852C
:020B300013862A
:020B3100138827
:020B3200138925
:020B3300138A23
:020B3400138C20
:020B3500138D1E
:020B3600138E1C
:020B3700139019
:020B3800139117
:020B3900139215
:020B3A00139412
:020B3B00139510
:020B3C0013960E
:020B3D0013980B
:020B3E00139909
:020B3F00139A07
:020B4000139C04
:020B4100139D02
:020B4200139E00
:020B430013A0FD
:020B440013A1FB
:020B450013A2F9
:020B460013A4F6
:020B470013A5F4
:020B480013A6F2
:020B490013A8EF
:020B4A0013A9ED
:020B4B0013AAEB
:020B4C0013ACE8
:020B4D0013ADE6
:020B4E0013AEE4
:020B4F0013B0E1
:020B500013B1DF
:020B510013B2DD
:020B520013B4DA
:020B530013B5D8
:020B540013B6D6
:020B550013B8D3
:020B560013B9D1
:020B570013BACF
:020B580013BCCC
:020B590013BDCA
:020B5A0013BEC8
:020B5B0013C0C5
:020B5C0013C1C3
:020B5D0013C2C1
:020B5E0013C4BE
:020B5F0013C5BC
:020B600013C6BA
:020B610013C8B7
:020B620013C9B5
:020B630013CAB3
:020B640013CCB0
:020B650013CDAE
:020B660013CEAC
:020B670013D0A9
:020B680013D1A7
:020B690013D2A5
:020B6A0013D4A2
:020B6B0013D5A0
:020B6C0013D69E
:020B6D0013D89B
:020B6E0013D999
:020B6F0013DA97
:020B700013DC94
:020B710013DD92
:020B720013DE90
:020B730013E08D
:020B740013E18B
:020B750013E289
:020B760013E486
:020B770013E584
:020B780013E682
:020B790013E87F
:020B7A0013E97D
:020B7B0013EA7B
:020B7C0013EB79
:020B7D0013ED76
:020B7E0013EE74
:020B7F0013EF72
:020B800013F16F
:020B810013F26D
:020B820013F36B
:020B830013F568
:020B840013F666
:020B850013F764
:020B860013F961
:020B870013FA5F
:020B880013FB5D
:020B890013FD5A
:020B8A0013FE58
:020B8B0013FF56
:020B8C00140152
:020B8D00140250
:020B8E0014034E
:020B8F0014044C
:020B9000140649
:020B9100140747
:020B9200140845
:020B9300140A42
:020B9400140B40
:020B9500140C3E
:020B9600140E3B
:020B9700140F39
:020B9800141037
:020B9900141234
:020B9A00141332
:020B9B00141430
:020B9C0014162D
:020B9D0014172B
:020B9E00141829
:020B9F00141927
:020BA000141B24
:020BA100141C22
:020BA200141D20
:020BA300141F1D
:020BA40014201B
:020BA500142119
:020BA600142316
:020BA700142414
:020BA800142512
:020BA90014270F
:020BAA0014280D
:020BAB0014290B
:020BAC00142A09
:020BAD00142C06
:020BAE00142D04
:020BAF00142E02
:020BB0001430FF
:020BB1001431FD
:020BB2001432FB
:020BB3001434F8
:020BB4001435F6
:020BB5001436F4
:020BB6001438F1
:020BB7001439EF
:020BB800143AED
:020BB900143BEB
:020BBA00143DE8
:020BBB00143EE6
:020BBC00143FE4
:020BBD001441E1
:020BBE001442DF
:020BBF001443DD
:020BC0001445DA
:020BC1001446D8
:020BC2001447D6
:020BC3001448D4
:020BC400144AD1
:020BC500144BCF
:020BC600144CCD
:020BC700144ECA
:020BC800144FC8
:020BC9001450C6
:020BCA001452C3
:020BCB001453C1
:020BCC001454BF
:020BCD001455BD
:020BCE001457BA
:020BCF001458B8
:020BD0001459B6
:020BD100145BB3
:020BD200145CB1
:020BD300145DAF
:020BD400145EAD
:020BD5001460AA
:020BD6001461A8
:020BD7001462A6
:020BD8001464A3
:020BD9001465A1
:020BDA0014669F
:020BDB0014679D
:020BDC0014699A
:020BDD00146A98
:020BDE00146B96
:020BDF00146D93
:020BE000146E91
:020BE100146F8F
:020BE20014718C
:020BE30014728A
:020BE400147388
:020BE500147486
:020BE600147683
:020BE700147781
:020BE80014787F
:020BE900147A7C
:020BEA00147B7A
:020BEB00147C78
:020BEC00147D76
:020BED00147F73
:020BEE00148071
:020BEF0014816F
:020BF00014836C
:020BF10014846A
:020BF200148568
:020BF300148666
:020BF400148863
:020BF500148961
:020BF600148A5F
:020BF700148C5C
:020BF800148D5A
:020BF900148E58
:020BFA00148F56
:020BFB00149153
:020BFC00149251
:020BFD0014934F
:020BFE0014954C
:020BFF0014964A
:020C0000149747
:020C0100149845
:020C0200149A42
:020C0300149B40
:020C0400149C3E
:020C0500149D3C
:020C0600149F39
:020C070014A037
:020C080014A135
:020C090014A332
:020C0A0014A430
:020C0B0014A52E
:020C0C0014A62C
:020C0D0014A829
:020C0E0014A927
:020C0F0014AA25
:020C100014AC22
:020C110014AD20
:020C120014AE1E
:020C130014AF1C
:020C140014B119
:020C150014B217
:020C160014B315
:020C170014B413
:020C180014B610
:020C190014B70E
:020C1A0014B80C
:020C1B0014BA09
:020C1C0014BB07
:020C1D0014BC05
:020C1E0014BD03
:020C1F0014BF00
:020C200014C0FE
:020C210014C1FC
:020C220014C2FA
:020C230014C4F7
:020C240014C5F5
:020C250014C6F3
:020C260014C7F1
:020C270014C9EE
:020C280014CAEC
:020C290014CBEA
:020C2A0014CDE7
:020C2B0014CEE5
:020C2C0014CFE3
:020C2D0014D0E1
:020C2E0014D2DE
:020C2F0014D3DC
:020C300014D4DA
:020C310014D5D8
:020C320014D7D5
:020C330014D8D3
:020C340014D9D1
:020C350014DACF
:020C360014DCCC
:020C370014DDCA
:020C380014DEC8
:020C390014E0C5
:020C3A0014E1C3
:020C3B0014E2C1
:020C3C0014E3BF
:020C3D0014E5BC
:020C3E0014E6BA
:020C3F0014E7B8
:020C400014E8B6
:020C410014EAB3
:020C420014EBB1
:020C430014ECAF
:020C440014EDAD
:020C450014EFAA
:020C460014F0A8
:020C470014F1A6
:020C480014F2A4
:020C490014F4A1
:020C4A0014F59F
:020C4B0014F69D
:020C4C0014F79B
:020C4D0014F998
:020C4E0014FA96
:020C4F0014FB94
:020C500014FD91
:020C510014FE8F
:020C520014FF8D
:020C530015008A
:020C5400150287
:020C5500150385
:020C5600150483
:020C5700150581
:020C580015077E
:020C590015087C
:020C5A0015097A
:020C5B00150A78
:020C5C00150C75
:020C5D00150D73
:020C5E00150E71
:020C5F00150F6F
:020C600015116C
:020C610015126A
:020C6200151368
:020C6300151466
:020C6400151663
:020C6500151761
:020C660015185F
:020C670015195D
:020C6800151B5A
:020C6900151C58
:020C6A00151D56
:020C6B00151E54
:020C6C00152051
:020C6D0015214F
:020C6E0015224D
:020C6F0015234B
:020C7000152548
:020C7100152646
:020C7200152744
:020C7300152842
:020C7400152A3F
:020C7500152B3D
:020C7600152C3B
:020C7700152D39
:020C7800152F36
:020C7900153034
:020C7A00153132
:020C7B00153230
:020C7C0015332E
:020C7D0015352B
:020C7E00153629
:020C7F00153727
:020C8000153825
:020C8100153A22
:020C8200153B20
:020C8300153C1E
:020C8400153D1C
:020C8500153F19
:020C8600154017
:020C8700154115
:020C8800154213
:020C8900154410
:020C8A0015450E
:020C8B0015460C
:020C8C0015470A
:020C8D00154907
:020C8E00154A05
:020C8F00154B03
:020C9000154C01
:020C9100154EFE
:020C9200154FFC
:020C93001550FA
:020C94001551F8
:020C95001552F6
:020C96001554F3
:020C97001555F1
:020C98001556EF
:020C99001557ED
:020C9A001559EA
:020C9B00155AE8
:020C9C00155BE6
:020C9D00155CE4
:020C9E00155EE1
:020C9F00155FDF
:020CA0001560DD
:020CA1001561DB
:020CA2001563D8
:020CA3001564D6
:020CA4001565D4
:020CA5001566D2
:020CA6001567D0
:020CA7001569CD
:020CA800156ACB
:020CA900156BC9
:020CAA00156CC7
:020CAB00156EC4
:020CAC00156FC2
:020CAD001570C0
:020CAE001571BE
:020CAF001573BB
:020CB0001574B9
:020CB1001575B7
:020CB2001576B5
:020CB3001577B3
:020CB4001579B0
:020CB500157AAE
:020CB600157BAC
:020CB700157CAA
:020CB800157EA7
:020CB900157FA5
:020CBA001580A3
:020CBB001581A1
:020CBC0015829F
:020CBD0015849C
:020CBE0015859A
:020CBF00158698
:020CC000158796
:020CC100158993
:020CC200158A91
:020CC300158B8F
:020CC400158C8D
:020CC500158D8B
:020CC600158F88
:020CC700159086
:020CC800159184
:020CC900159282
:020CCA0015947F
:020CCB0015957D
:020CCC0015967B
:020CCD00159779
:020CCE00159877
:020CCF00159A74
:020CD000159B72
:020CD100159C70
:020CD200159D6E
:020CD300159F6B
:020CD40015A069
:020CD50015A167
:020CD60015A265
:020CD70015A363
:020CD80015A560
:020CD90015A65E
:020CDA0015A75C
:020CDB0015A85A
:020CDC0015A958
:020CDD0015AB55
:020CDE0015AC53
:020CDF0015AD51
:020CE00015AE4F
:020CE10015B04C
:020CE20015B14A
:020CE30015B248
:020CE40015B346
:020CE50015B444
:020CE60015B641
:020CE70015B73F
:020CE80015B83D
:020CE90015B93B
:020CEA0015BA39
:020CEB0015BC36
:020CEC0015BD34
:020CED0015BE32
:020CEE0015BF30
:020CEF0015C12D
:020CF00015C22B
:020CF10015C329
:020CF20015C427
:020CF30015C525
:020CF40015C722
:020CF50015C820
:020CF60015C91E
:020CF70015CA1C
:020CF80015CB1A
:020CF90015CD17
:020CFA0015CE15
:020CFB0015CF13
:020CFC0015D011
:020CFD0015D10F
:020CFE0015D30C
:020CFF0015D40A
:020D000015D507
:020D010015D605
:020D020015D703
:020D030015D900
:020D040015DAFE
:020D050015DBFC
:020D060015DCFA
:020D070015DDF8
:020D080015DFF5
:020D090015E0F3
:020D0A0015E1F1
:020D0B0015E2EF
:020D0C0015E3ED
:020D0D0015E5EA
:020D0E0015E6E8
:020D0F0015E7E6
:020D100015E8E4
:020D110015E9E2
:020D120015EBDF
:020D130015ECDD
:020D140015EDDB
:020D150015EED9
:020D160015EFD7
:020D170015F1D4
:020D180015F2D2
:020D190015F3D0
:020D1A0015F4CE
:020D1B0015F5CC
:020D1C0015F7C9
:020D1D0015F8C7
:020D1E0015F9C5
:020D1F0015FAC3
:020D200015FBC1
:020D210015FDBE
:020D220015FEBC
:020D230015FFBA
:020D24001600B7
:020D25001601B5
:020D26001603B2
:020D27001604B0
:020D28001605AE
:020D29001606AC
:020D2A001607AA
:020D2B001609A7
:020D2C00160AA5
:020D2D00160BA3
:020D2E00160CA1
:020D2F00160D9F
:020D3000160F9C
:020D310016109A
:020D3200161198
:020D3300161296
:020D3400161394
:020D3500161492
:020D360016168F
:020D370016178D
:020D380016188B
:020D3900161989
:020D3A00161A87
:020D3B00161C84
:020D3C00161D82
:020D3D00161E80
:020D3E00161F7E
:020D3F0016207C
:020D4000162279
:020D4100162377
:020D4200162475
:020D4300162573
:020D4400162671
:020D450016276F
:020D460016296C
:020D4700162A6A
:020D4800162B68
:020D4900162C66
:020D4A00162D64
:020D4B00162F61
:020D4C0016305F
:020D4D0016315D
:020D4E0016325B
:020D4F00163359
:020D5000163457
:020D5100163654
:020D5200163752
:020D5300163850
:020D540016394E
:020D5500163A4C
:020D5600163C49
:020D5700163D47
:020D5800163E45
:020D5900163F43
:020D5A00164041
:020D5B0016413F
:020D5C0016433C
:020D5D0016443A
:020D5E00164538
:020D5F00164636
:020D6000164734
:020D6100164931
:020D6200164A2F
:020D6300164B2D
:020D6400164C2B
:020D6500164D29
:020D6600164E27
:020D6700165024
:020D6800165122
:020D6900165220
:020D6A0016531E
:020D6B0016541C
:020D6C0016551A
:020D6D00165717
:020D6E00165815
:020D6F00165913
:020D7000165A11
:020D7100165B0F
:020D7200165D0C
:020D7300165E0A
:020D7400165F08
:020D7500166006
:020D7600166104
:020D7700166202
:020D78001664FF
:020D79001665FD
:020D7A001666FB
:020D7B001667F9
:020D7C001668F7
:020D7D001669F5
:020D7E00166BF2
:020D7F00166CF0
:020D8000166DEE
:020D8100166EEC
:020D8200166FEA
:020D83001670E8
:020D84001672E5
:020D85001673E3
:020D86001674E1
:020D87001675DF
:020D88001676DD
:020D89001677DB
:020D8A001679D8
:020D8B00167AD6
:020D8C00167BD4
:020D8D00167CD2
:020D8E00167DD0
:020D8F00167ECE
:020D90001680CB
:020D91001681C9
:020D92001682C7
:020D93001683C5
:020D94001684C3
:020D95001685C1
:020D96001687BE
:020D97001688BC
:020D98001689BA
:020D9900168AB8
:020D9A00168BB6
:020D9B00168CB4
:020D9C00168EB1
:020D9D00168FAF
:020D9E001690AD
:020D9F001691AB
:020DA0001692A9
:020DA1001693A7
:020DA2001694A5
:020DA3001696A2
:020DA4001697A0
:020DA50016989E
:020DA60016999C
:020DA700169A9A
:020DA800169B98
:020DA900169D95
:020DAA00169E93
:020DAB00169F91
:020DAC0016A08F
:020DAD0016A18D
:020DAE0016A28B
:020DAF0016A389
:020DB00016A586
:020DB10016A684
:020DB20016A782
:020DB30016A880
:020DB40016A97E
:020DB50016AA7C
:020DB60016AC79
:020DB70016AD77
:020DB80016AE75
:020DB90016AF73
:020DBA0016B071
:020DBB0016B16F
:020DBC0016B26D
:020DBD0016B46A
:020DBE0016B568
:020DBF0016B666
:020DC00016B764
:020DC10016B862
:020DC20016B960
:020DC30016BB5D
:020DC40016BC5B
:020DC50016BD59
:020DC60016BE57
:020DC70016BF55
:020DC80016C053
:020DC90016C151
:020DCA0016C34E
:020DCB0016C44C
:020DCC0016C54A
:020DCD0016C648
:020DCE0016C746
:020DCF0016C844
:020DD00016C942
:020DD10016CB3F
:020DD20016CC3D
:020DD30016CD3B
:020DD40016CE39
:020DD50016CF37
:020DD60016D035
:020DD70016D133
:020DD80016D330
:020DD90016D42E
:020DDA0016D52C
:020DDB0016D62A
:020DDC0016D728
:020DDD0016D826
:020DDE0016D924
:020DDF0016DB21
:020DE00016DC1F
:020DE10016DD1D
:020DE20016DE1B
:020DE30016DF19
:020DE40016E017
:020DE50016E115
:020DE60016E312
:020DE70016E410
:020DE80016E50E
:020DE90016E60C
:020DEA0016E70A
:020DEB0016E808
:020DEC0016E906
:020DED0016EB03
:020DEE0016EC01
:020DEF0016EDFF
:020DF00016EEFD
:020DF10016EFFB
:020DF20016F0F9
:020DF30016F1F7
:020DF40016F3F4
:020DF50016F4F2
:020DF60016F5F0
:020DF70016F6EE
:020DF80016F7EC
:020DF90016F8EA
:020DFA0016F9E8
:020DFB0016FAE6
:020DFC0016FCE3
:020DFD0016FDE1
:020DFE0016FEDF
:020DFF0016FFDD
:020E00001700D9
:020E01001701D7
:020E02001702D5
:020E03001704D2
:020E04001705D0
:020E05001706CE
:020E06001707CC
:020E07001708CA
:020E08001709C8
:020E0900170AC6
:020E0A00170BC4
:020E0B00170DC1
:020E0C00170EBF
:020E0D00170FBD
:020E0E001710BB
:020E0F001711B9
:020E10001712B7
:020E11001713B5
:020E12001715B2
:020E13001716B0
:020E14001717AE
:020E15001718AC
:020E16001719AA
:020E1700171AA8
:020E1800171BA6
:020E1900171CA4
:020E1A00171EA1
:020E1B00171F9F
:020E1C0017209D
:020E1D0017219B
:020E1E00172299
:020E1F00172397
:020E2000172495
:020E2100172593
:020E2200172790
:020E230017288E
:020E240017298C
:020E2500172A8A
:020E2600172B88
:020E2700172C86
:020E2800172D84
:020E2900172E82
:020E2A00172F80
:020E2B0017317D
:020E2C0017327B
:020E2D00173379
:020E2E00173477
:020E2F00173575
:020E3000173673
:020E3100173771
:020E320017386F
:020E3300173A6C
:020E3400173B6A
:020E3500173C68
:020E3600173D66
:020E3700173E64
:020E3800173F62
:020E3900174060
:020E3A0017415E
:020E3B0017435B
:020E3C00174459
:020E3D00174557
:020E3E00174655
:020E3F00174753
:020E4000174851
:020E410017494F
:020E4200174A4D
:020E4300174B4B
:020E4400174D48
:020E4500174E46
:020E4600174F44
:020E4700175042
:020E4800175140
:020E490017523E
:020E4A0017533C
:020E4B0017543A
:020E4C00175538
:020E4D00175735
:020E4E00175833
:020E4F00175931
:020E5000175A2F
:020E5100175B2D
:020E5200175C2B
:020E5300175D29
:020E5400175E27
:020E5500175F25
:020E5600176122
:020E5700176220
:020E580017631E
:020E590017641C
:020E5A0017651A
:020E5B00176618
:020E5C00176716
:020E5D00176814
:020E5E00176912
:020E5F00176B0F
:020E6000176C0D
:020E6100176D0B
:020E6200176E09
:020E6300176F07
:020E6400177005
:020E6500177103
:020E6600177201
:020E67001773FF
:020E68001774FD
:020E69001776FA
:020E6A001777F8
:020E6B001778F6
:020E6C001779F4
:020E6D00177AF2
:020E6E00177BF0
:020E6F00177CEE
:020E7000177DEC
:020E7100177EEA
:020E72001780E7
:020E73001781E5
:020E74001782E3
:020E75001783E1
:020E76001784DF
:020E77001785DD
:020E78001786DB
:020E79001787D9
:020E7A001788D7
:020E7B001789D5
:020E7C00178BD2
:020E7D00178CD0
:020E7E00178DCE
:020E7F00178ECC
:020E8000178FCA
:020E81001790C8
:020E82001791C6
:020E83001792C4
:020E84001793C2
:020E85001794C0
:020E86001796BD
:020E87001797BB
:020E88001798B9
:020E89001799B7
:020E8A00179AB5
:020E8B00179BB3
:020E8C00179CB1
:020E8D00179DAF
:020E8E00179EAD
:020E8F00179FAB
:020E900017A0A9
:020E910017A2A6
:020E920017A3A4
:020E930017A4A2
:020E940017A5A0
:020E950017A69E
:020E960017A79C
:020E970017A89A
:020E980017A998
:020E990017AA96
:020E9A0017AB94
:020E9B0017AC92
:020E9C0017AE8F
:020E9D0017AF8D
:020E9E0017B08B
:020E9F0017B189
:020EA00017B287
:020EA10017B385
:020EA20017B483
:020EA30017B581
:020EA40017B67F
:020EA50017B77D
:020EA60017B87B
:020EA70017BA78
:020EA80017BB76
:020EA90017BC74
:020EAA0017BD72
:020EAB0017BE70
:020EAC0017BF6E
:020EAD0017C06C
:020EAE0017C16A
:020EAF0017C268
:020EB00017C366
:020EB10017C464
:020EB20017C562
:020EB30017C75F
:020EB40017C85D
:020EB50017C95B
:020EB60017CA59
:020EB70017CB57
:020EB80017CC55
:020EB90017CD53
:020EBA0017CE51
:020EBB0017CF4F
:020EBC0017D04D
:020EBD0017D14B
:020EBE0017D249
:020EBF0017D446
:020EC00017D544
:020EC10017D642
:020EC20017D740
:020EC30017D83E
:020EC40017D93C
:020EC50017DA3A
:020EC60017DB38
:020EC70017DC36
:020EC80017DD34
:020EC90017DE32
:020ECA0017DF30
:020ECB0017E12D
:020ECC0017E22B
:020ECD0017E329
:020ECE0017E427
:020ECF0017E525
:020ED00017E623
:020ED10017E721
:020ED20017E81F
:020ED30017E91D
:020ED40017EA1B
:020ED50017EB19
:020ED60017EC17
:020ED70017ED15
:020ED80017EF12
:020ED90017F010
:020EDA0017F10E
:020EDB0017F20C
:020EDC0017F30A
:020EDD0017F408
:020EDE0017F506
:020EDF0017F604
:020EE00017F702
:020EE10017F800
:020EE20017F9FE
:020EE30017FAFC
:020EE40017FBFA
:020EE50017FCF8
:020EE60017FEF5
:020EE70017FFF3
:020EE8001800F0
:020EE9001801EE
:020EEA001802EC
:020EEB001803EA
:020EEC001804E8
:020EED001805E6
:020EEE001806E4
:020EEF001807E2
:020EF0001808E0
:020EF1001809DE
:020EF200180ADC
:020EF300180BDA
:020EF400180DD7
:020EF500180ED5
:020EF600180FD3
:020EF7001810D1
:020EF8001811CF
:020EF9001812CD
:020EFA001813CB
:020EFB001814C9
:020EFC001815C7
:020EFD001816C5
:020EFE001817C3
:020EFF001818C1
:020F00001819BE
:020F0100181ABC
:020F0200181BBA
:020F0300181DB7
:020F0400181EB5
:020F0500181FB3
:020F06001820B1
:020F07001821AF
:020F08001822AD
:020F09001823AB
:020F0A001824A9
:020F0B001825A7
:020F0C001826A5
:020F0D001827A3
:020F0E001828A1
:020F0F0018299F
:020F1000182A9D
:020F1100182B9B
:020F1200182C99
:020F1300182D97
:020F1400182F94
:020F1500183092
:020F1600183190
:020F170018328E
:020F180018338C
:020F190018348A
:020F1A00183588
:020F1B00183686
:020F1C00183784
:020F1D00183882
:020F1E00183980
:020F1F00183A7E
:020F2000183B7C
:020F2100183C7A
:020F2200183D78
:020F2300183E76
:020F2400183F74
:020F2500184171
:020F260018426F
:020F270018436D
:020F280018446B
:020F2900184569
:020F2A00184667
:020F2B00184765
:020F2C00184863
:020F2D00184961
:020F2E00184A5F
:020F2F00184B5D
:020F3000184C5B
:020F3100184D59
:020F3200184E57
:020F3300184F55
:020F3400185053
:020F3500185151
:020F360018524F
:020F370018534D
:020F380018554A
:020F3900185648
:020F3A00185746
:020F3B00185844
:020F3C00185942
:020F3D00185A40
:020F3E00185B3E
:020F3F00185C3C
:020F4000185D3A
:020F4100185E38
:020F4200185F36
:020F4300186034
:020F4400186132
:020F4500186230
:020F460018632E
:020F470018642C
:020F480018652A
:020F4900186628
:020F4A00186726
:020F4B00186824
:020F4C00186922
:020F4D00186B1F
:020F4E00186C1D
:020F4F00186D1B
:020F5000186E19
:020F5100186F17
:020F5200187015
:020F5300187113
:020F5400187211
:020F550018730F
:020F560018740D
:020F570018750B
:020F5800187609
:020F5900187707
:020F5A00187805
:020F5B00187903
:020F5C00187A01
:020F5D00187BFF
:020F5E00187CFD
:020F5F00187DFB
:020F6000187EF9
:020F6100187FF7
:020F62001880F5
:020F63001881F3
:020F64001882F1
:020F65001884EE
:020F66001885EC
:020F67001886EA
:020F68001887E8
:020F69001888E6
:020F6A001889E4
:020F6B00188AE2
:020F6C00188BE0
:020F6D00188CDE
:020F6E00188DDC
:020F6F00188EDA
:020F7000188FD8
:020F71001890D6
:020F72001891D4
:020F73001892D2
:020F74001893D0
:020F75001894CE
:020F76001895CC
:020F77001896CA
:020F78001897C8
:020F79001898C6
:020F7A001899C4
:020F7B00189AC2
:020F7C00189BC0
:020F7D00189CBE
:020F7E00189DBC
:020F7F00189EBA
:020F8000189FB8
:020F810018A0B6
:020F820018A2B3
:020F830018A3B1
:020F840018A4AF
:020F850018A5AD
:020F860018A6AB
:020F870018A7A9
:020F880018A8A7
:020F890018A9A5
:020F8A0018AAA3
:020F8B0018ABA1
:020F8C0018AC9F
:020F8D0018AD9D
:020F8E0018AE9B
:020F8F0018AF99
:020F900018B097
:020F910018B195
:020F920018B293
:020F930018B391
:020F940018B48F
:020F950018B58D
:020F960018B68B
:020F970018B789
:020F980018B887
:020F990018B985
:020F9A0018BA83
:020F9B0018BB81
:020F9C0018BC7F
:020F9D0018BD7D
:020F9E0018BE7B
:020F9F0018BF79
